{
  "contractName": "MoreStates",
  "abi": [
    {
      "constant": true,
      "inputs": [],
      "name": "_int2",
      "outputs": [
        {
          "name": "",
          "type": "int256"
        }
      ],
      "payable": false,
      "stateMutability": "view",
      "type": "function"
    },
    {
      "constant": true,
      "inputs": [],
      "name": "_bool2",
      "outputs": [
        {
          "name": "",
          "type": "bool"
        }
      ],
      "payable": false,
      "stateMutability": "view",
      "type": "function"
    },
    {
      "constant": true,
      "inputs": [],
      "name": "_uint2",
      "outputs": [
        {
          "name": "",
          "type": "uint256"
        }
      ],
      "payable": false,
      "stateMutability": "view",
      "type": "function"
    },
    {
      "constant": true,
      "inputs": [],
      "name": "_string2",
      "outputs": [
        {
          "name": "",
          "type": "string"
        }
      ],
      "payable": false,
      "stateMutability": "view",
      "type": "function"
    }
  ],
  "bytecode": "0x60806040526001600055600180556040805190810160405280600781526020017f737472696e67320000000000000000000000000000000000000000000000000081525060029080519060200190610058929190610086565b506000600360006101000a81548160ff02191690831515021790555034801561008057600080fd5b5061012b565b828054600181600116156101000203166002900490600052602060002090601f016020900481019282601f106100c757805160ff19168380011785556100f5565b828001600101855582156100f5579182015b828111156100f45782518255916020019190600101906100d9565b5b5090506101029190610106565b5090565b61012891905b8082111561012457600081600090555060010161010c565b5090565b90565b6102658061013a6000396000f300608060405260043610610062576000357c0100000000000000000000000000000000000000000000000000000000900463ffffffff16806353e95af914610067578063a2e7fe8a14610092578063b6e6f255146100c1578063c23ca580146100ec575b600080fd5b34801561007357600080fd5b5061007c61017c565b6040518082815260200191505060405180910390f35b34801561009e57600080fd5b506100a7610182565b604051808215151515815260200191505060405180910390f35b3480156100cd57600080fd5b506100d6610195565b6040518082815260200191505060405180910390f35b3480156100f857600080fd5b5061010161019b565b6040518080602001828103825283818151815260200191508051906020019080838360005b83811015610141578082015181840152602081019050610126565b50505050905090810190601f16801561016e5780820380516001836020036101000a031916815260200191505b509250505060405180910390f35b60005481565b600360009054906101000a900460ff1681565b60015481565b60028054600181600116156101000203166002900480601f0160208091040260200160405190810160405280929190818152602001828054600181600116156101000203166002900480156102315780601f1061020657610100808354040283529160200191610231565b820191906000526020600020905b81548152906001019060200180831161021457829003601f168201915b5050505050815600a165627a7a723058203dc8d4b1687746080739272dbce50d167c73626ffeee7c4f5ba2b2a7d0ab58920029",
  "source": "pragma solidity ^0.4.20;\n\ncontract MoreStates {\n    int public _int2 = 1;\n    uint public _uint2 = 1;\n    string public _string2 = \"string2\";\n    bool public _bool2 = false;\n}",
  "sourcePath": "/home/ubuntu/dev/contract-state-util/contracts/MoreStates.sol",
  "compiler": {
    "name": "solc",
    "version": "0.4.23+commit.124ca40d.Emscripten.clang"
  },
  "schemaVersion": "2.0.0",
  "updatedAt": "2018-04-30T02:24:21.986Z"
}