{
  "contractName": "MoreStates",
  "abi": [
    {
      "constant": true,
      "inputs": [],
      "name": "_int2",
      "outputs": [
        {
          "name": "",
          "type": "int256"
        }
      ],
      "payable": false,
      "stateMutability": "view",
      "type": "function"
    },
    {
      "constant": true,
      "inputs": [],
      "name": "_bool2",
      "outputs": [
        {
          "name": "",
          "type": "bool"
        }
      ],
      "payable": false,
      "stateMutability": "view",
      "type": "function"
    },
    {
      "constant": true,
      "inputs": [],
      "name": "_uint2",
      "outputs": [
        {
          "name": "",
          "type": "uint256"
        }
      ],
      "payable": false,
      "stateMutability": "view",
      "type": "function"
    },
    {
      "constant": true,
      "inputs": [],
      "name": "_string2",
      "outputs": [
        {
          "name": "",
          "type": "string"
        }
      ],
      "payable": false,
      "stateMutability": "view",
      "type": "function"
    }
  ],
  "bytecode": "0x60606040526001600055600180556040805190810160405280600781526020017f737472696e67320000000000000000000000000000000000000000000000000081525060029080519060200190610058929190610084565b506000600360006101000a81548160ff021916908315150217905550341561007f57600080fd5b610129565b828054600181600116156101000203166002900490600052602060002090601f016020900481019282601f106100c557805160ff19168380011785556100f3565b828001600101855582156100f3579182015b828111156100f25782518255916020019190600101906100d7565b5b5090506101009190610104565b5090565b61012691905b8082111561012257600081600090555060010161010a565b5090565b90565b61025d806101386000396000f300606060405260043610610062576000357c0100000000000000000000000000000000000000000000000000000000900463ffffffff16806353e95af914610067578063a2e7fe8a14610090578063b6e6f255146100bd578063c23ca580146100e6575b600080fd5b341561007257600080fd5b61007a610174565b6040518082815260200191505060405180910390f35b341561009b57600080fd5b6100a361017a565b604051808215151515815260200191505060405180910390f35b34156100c857600080fd5b6100d061018d565b6040518082815260200191505060405180910390f35b34156100f157600080fd5b6100f9610193565b6040518080602001828103825283818151815260200191508051906020019080838360005b8381101561013957808201518184015260208101905061011e565b50505050905090810190601f1680156101665780820380516001836020036101000a031916815260200191505b509250505060405180910390f35b60005481565b600360009054906101000a900460ff1681565b60015481565b60028054600181600116156101000203166002900480601f0160208091040260200160405190810160405280929190818152602001828054600181600116156101000203166002900480156102295780601f106101fe57610100808354040283529160200191610229565b820191906000526020600020905b81548152906001019060200180831161020c57829003601f168201915b5050505050815600a165627a7a72305820d84786d6e9ea2a0cfd7a5659512146f871ca78129f13769fe005d0703cb4f44c0029",
  "source": "pragma solidity ^0.4.20;\n\ncontract MoreStates {\n    int public _int2 = 1;\n    uint public _uint2 = 1;\n    string public _string2 = \"string2\";\n    bool public _bool2 = false;\n}",
  "sourcePath": "/home/ubuntu/dev/contract-state-util/contracts/MoreStates.sol",
  "compiler": {
    "name": "solc",
    "version": "0.4.21+commit.dfe3193c.Emscripten.clang"
  },
  "schemaVersion": "2.0.0",
  "updatedAt": "2018-04-24T14:06:03.980Z"
}