{
  "contractName": "MoreStates",
  "abi": [
    {
      "constant": true,
      "inputs": [],
      "name": "_bool2",
      "outputs": [
        {
          "name": "",
          "type": "bool"
        }
      ],
      "payable": false,
      "stateMutability": "view",
      "type": "function"
    },
    {
      "constant": true,
      "inputs": [],
      "name": "_uint2",
      "outputs": [
        {
          "name": "",
          "type": "uint256"
        }
      ],
      "payable": false,
      "stateMutability": "view",
      "type": "function"
    },
    {
      "constant": true,
      "inputs": [],
      "name": "_string2",
      "outputs": [
        {
          "name": "",
          "type": "string"
        }
      ],
      "payable": false,
      "stateMutability": "view",
      "type": "function"
    }
  ],
  "bytecode": "0x606060405260016000556040805190810160405280600781526020017f737472696e67320000000000000000000000000000000000000000000000000081525060019080519060200190610054929190610080565b506000600260006101000a81548160ff021916908315150217905550341561007b57600080fd5b610125565b828054600181600116156101000203166002900490600052602060002090601f016020900481019282601f106100c157805160ff19168380011785556100ef565b828001600101855582156100ef579182015b828111156100ee5782518255916020019190600101906100d3565b5b5090506100fc9190610100565b5090565b61012291905b8082111561011e576000816000905550600101610106565b5090565b90565b610223806101346000396000f300606060405260043610610057576000357c0100000000000000000000000000000000000000000000000000000000900463ffffffff168063a2e7fe8a1461005c578063b6e6f25514610089578063c23ca580146100b2575b600080fd5b341561006757600080fd5b61006f610140565b604051808215151515815260200191505060405180910390f35b341561009457600080fd5b61009c610153565b6040518082815260200191505060405180910390f35b34156100bd57600080fd5b6100c5610159565b6040518080602001828103825283818151815260200191508051906020019080838360005b838110156101055780820151818401526020810190506100ea565b50505050905090810190601f1680156101325780820380516001836020036101000a031916815260200191505b509250505060405180910390f35b600260009054906101000a900460ff1681565b60005481565b60018054600181600116156101000203166002900480601f0160208091040260200160405190810160405280929190818152602001828054600181600116156101000203166002900480156101ef5780601f106101c4576101008083540402835291602001916101ef565b820191906000526020600020905b8154815290600101906020018083116101d257829003601f168201915b5050505050815600a165627a7a723058204eadfee8b54f80c96a7344366f86cbf4ec1346f192077d21d296fb145833d4640029",
  "source": "pragma solidity ^0.4.20;\n\ncontract MoreStates {\n    uint public _uint2 = 1;\n    string public _string2 = \"string2\";\n    bool public _bool2 = false;\n}",
  "sourcePath": "/home/ubuntu/dev/contract-state-util/contracts/MoreStates.sol",
  "compiler": {
    "name": "solc",
    "version": "0.4.21+commit.dfe3193c.Emscripten.clang"
  },
  "schemaVersion": "2.0.0",
  "updatedAt": "2018-04-23T21:30:52.106Z"
}