{
  "contractName": "States",
  "abi": [
    {
      "constant": true,
      "inputs": [],
      "name": "_uint",
      "outputs": [
        {
          "name": "",
          "type": "uint256"
        }
      ],
      "payable": false,
      "stateMutability": "view",
      "type": "function"
    },
    {
      "constant": true,
      "inputs": [],
      "name": "_string",
      "outputs": [
        {
          "name": "",
          "type": "string"
        }
      ],
      "payable": false,
      "stateMutability": "view",
      "type": "function"
    },
    {
      "constant": true,
      "inputs": [],
      "name": "_bool",
      "outputs": [
        {
          "name": "",
          "type": "bool"
        }
      ],
      "payable": false,
      "stateMutability": "view",
      "type": "function"
    }
  ],
  "bytecode": "0x6060604052600080556040805190810160405280600681526020017f737472696e6700000000000000000000000000000000000000000000000000008152506001908051906020019061005392919061007f565b506001600260006101000a81548160ff021916908315150217905550341561007a57600080fd5b610124565b828054600181600116156101000203166002900490600052602060002090601f016020900481019282601f106100c057805160ff19168380011785556100ee565b828001600101855582156100ee579182015b828111156100ed5782518255916020019190600101906100d2565b5b5090506100fb91906100ff565b5090565b61012191905b8082111561011d576000816000905550600101610105565b5090565b90565b610223806101336000396000f300606060405260043610610057576000357c0100000000000000000000000000000000000000000000000000000000900463ffffffff1680632543135b1461005c5780639b267f09146100855780639e6ba9c214610113575b600080fd5b341561006757600080fd5b61006f610140565b6040518082815260200191505060405180910390f35b341561009057600080fd5b610098610146565b6040518080602001828103825283818151815260200191508051906020019080838360005b838110156100d85780820151818401526020810190506100bd565b50505050905090810190601f1680156101055780820380516001836020036101000a031916815260200191505b509250505060405180910390f35b341561011e57600080fd5b6101266101e4565b604051808215151515815260200191505060405180910390f35b60005481565b60018054600181600116156101000203166002900480601f0160208091040260200160405190810160405280929190818152602001828054600181600116156101000203166002900480156101dc5780601f106101b1576101008083540402835291602001916101dc565b820191906000526020600020905b8154815290600101906020018083116101bf57829003601f168201915b505050505081565b600260009054906101000a900460ff16815600a165627a7a72305820468bb7a05ede3150cbb794c095c94d2d8b6e79cab35cf9a0c313a764afd7b2aa0029",
  "source": "pragma solidity ^0.4.20;\n\ncontract States {\n    uint public _uint = 0;\n    string public _string = \"string\";\n    bool public _bool = true;\n}",
  "sourcePath": "/home/ubuntu/dev/contract-state-util/contracts/States.sol",
  "compiler": {
    "name": "solc",
    "version": "0.4.21+commit.dfe3193c.Emscripten.clang"
  },
  "schemaVersion": "2.0.0",
  "updatedAt": "2018-04-23T21:30:52.105Z"
}