{
  "contractName": "States",
  "abi": [
    {
      "constant": true,
      "inputs": [],
      "name": "_uint",
      "outputs": [
        {
          "name": "",
          "type": "uint256"
        }
      ],
      "payable": false,
      "stateMutability": "view",
      "type": "function"
    },
    {
      "constant": true,
      "inputs": [],
      "name": "_string",
      "outputs": [
        {
          "name": "",
          "type": "string"
        }
      ],
      "payable": false,
      "stateMutability": "view",
      "type": "function"
    },
    {
      "constant": true,
      "inputs": [],
      "name": "_bool",
      "outputs": [
        {
          "name": "",
          "type": "bool"
        }
      ],
      "payable": false,
      "stateMutability": "view",
      "type": "function"
    },
    {
      "constant": true,
      "inputs": [],
      "name": "_int",
      "outputs": [
        {
          "name": "",
          "type": "int256"
        }
      ],
      "payable": false,
      "stateMutability": "view",
      "type": "function"
    },
    {
      "constant": false,
      "inputs": [
        {
          "name": "change",
          "type": "string"
        }
      ],
      "name": "setString",
      "outputs": [],
      "payable": false,
      "stateMutability": "nonpayable",
      "type": "function"
    }
  ],
  "bytecode": "0x60606040526000805560006001556040805190810160405280600681526020017f737472696e67000000000000000000000000000000000000000000000000000081525060029080519060200190610058929190610084565b506001600360006101000a81548160ff021916908315150217905550341561007f57600080fd5b610129565b828054600181600116156101000203166002900490600052602060002090601f016020900481019282601f106100c557805160ff19168380011785556100f3565b828001600101855582156100f3579182015b828111156100f25782518255916020019190600101906100d7565b5b5090506101009190610104565b5090565b61012691905b8082111561012257600081600090555060010161010a565b5090565b90565b610384806101386000396000f30060606040526004361061006d576000357c0100000000000000000000000000000000000000000000000000000000900463ffffffff1680632543135b146100725780637fcaf6661461009b5780639b267f09146100f85780639e6ba9c214610186578063af45869e146101b3575b600080fd5b341561007d57600080fd5b6100856101dc565b6040518082815260200191505060405180910390f35b34156100a657600080fd5b6100f6600480803590602001908201803590602001908080601f016020809104026020016040519081016040528093929190818152602001838380828437820191505050505050919050506101e2565b005b341561010357600080fd5b61010b6101fc565b6040518080602001828103825283818151815260200191508051906020019080838360005b8381101561014b578082015181840152602081019050610130565b50505050905090810190601f1680156101785780820380516001836020036101000a031916815260200191505b509250505060405180910390f35b341561019157600080fd5b61019961029a565b604051808215151515815260200191505060405180910390f35b34156101be57600080fd5b6101c66102ad565b6040518082815260200191505060405180910390f35b60015481565b80600290805190602001906101f89291906102b3565b5050565b60028054600181600116156101000203166002900480601f0160208091040260200160405190810160405280929190818152602001828054600181600116156101000203166002900480156102925780601f1061026757610100808354040283529160200191610292565b820191906000526020600020905b81548152906001019060200180831161027557829003601f168201915b505050505081565b600360009054906101000a900460ff1681565b60005481565b828054600181600116156101000203166002900490600052602060002090601f016020900481019282601f106102f457805160ff1916838001178555610322565b82800160010185558215610322579182015b82811115610321578251825591602001919060010190610306565b5b50905061032f9190610333565b5090565b61035591905b80821115610351576000816000905550600101610339565b5090565b905600a165627a7a72305820cee10d2bd8c20916bebc79b011909c99927a53564dcfae8f5670d6e54d9887020029",
  "source": "pragma solidity ^0.4.20;\n\ncontract States {\n    int public _int = 0;\n    //8 ->256\n    uint public _uint = 0;\n    //8 ->256\n    //address\n    //bytes1..32\n    //enum\n    //array all types\n    //mapping all types\n    //struct\n    string public _string = \"string\";\n    bool public _bool = true;\n    function setString(string change) public {\n        _string=change;\n    }\n}",
  "sourcePath": "/home/ubuntu/dev/contract-state-util/contracts/States.sol",
  "compiler": {
    "name": "solc",
    "version": "0.4.21+commit.dfe3193c.Emscripten.clang"
  },
  "schemaVersion": "2.0.0",
  "updatedAt": "2018-04-24T14:06:03.979Z"
}