{
  "contractName": "States",
  "abi": [
    {
      "constant": true,
      "inputs": [],
      "name": "_uint",
      "outputs": [
        {
          "name": "",
          "type": "uint256"
        }
      ],
      "payable": false,
      "stateMutability": "view",
      "type": "function"
    },
    {
      "constant": true,
      "inputs": [],
      "name": "_string",
      "outputs": [
        {
          "name": "",
          "type": "string"
        }
      ],
      "payable": false,
      "stateMutability": "view",
      "type": "function"
    },
    {
      "constant": true,
      "inputs": [],
      "name": "_bool",
      "outputs": [
        {
          "name": "",
          "type": "bool"
        }
      ],
      "payable": false,
      "stateMutability": "view",
      "type": "function"
    },
    {
      "constant": true,
      "inputs": [],
      "name": "_int",
      "outputs": [
        {
          "name": "",
          "type": "int256"
        }
      ],
      "payable": false,
      "stateMutability": "view",
      "type": "function"
    },
    {
      "constant": false,
      "inputs": [
        {
          "name": "change",
          "type": "string"
        }
      ],
      "name": "setString",
      "outputs": [],
      "payable": false,
      "stateMutability": "nonpayable",
      "type": "function"
    }
  ],
  "bytecode": "0x60806040526000805560006001556040805190810160405280600681526020017f737472696e67000000000000000000000000000000000000000000000000000081525060029080519060200190610058929190610086565b506001600360006101000a81548160ff02191690831515021790555034801561008057600080fd5b5061012b565b828054600181600116156101000203166002900490600052602060002090601f016020900481019282601f106100c757805160ff19168380011785556100f5565b828001600101855582156100f5579182015b828111156100f45782518255916020019190600101906100d9565b5b5090506101029190610106565b5090565b61012891905b8082111561012457600081600090555060010161010c565b5090565b90565b6103988061013a6000396000f30060806040526004361061006d576000357c0100000000000000000000000000000000000000000000000000000000900463ffffffff1680632543135b146100725780637fcaf6661461009d5780639b267f09146101065780639e6ba9c214610196578063af45869e146101c5575b600080fd5b34801561007e57600080fd5b506100876101f0565b6040518082815260200191505060405180910390f35b3480156100a957600080fd5b50610104600480360381019080803590602001908201803590602001908080601f01602080910402602001604051908101604052809392919081815260200183838082843782019150505050505091929192905050506101f6565b005b34801561011257600080fd5b5061011b610210565b6040518080602001828103825283818151815260200191508051906020019080838360005b8381101561015b578082015181840152602081019050610140565b50505050905090810190601f1680156101885780820380516001836020036101000a031916815260200191505b509250505060405180910390f35b3480156101a257600080fd5b506101ab6102ae565b604051808215151515815260200191505060405180910390f35b3480156101d157600080fd5b506101da6102c1565b6040518082815260200191505060405180910390f35b60015481565b806002908051906020019061020c9291906102c7565b5050565b60028054600181600116156101000203166002900480601f0160208091040260200160405190810160405280929190818152602001828054600181600116156101000203166002900480156102a65780601f1061027b576101008083540402835291602001916102a6565b820191906000526020600020905b81548152906001019060200180831161028957829003601f168201915b505050505081565b600360009054906101000a900460ff1681565b60005481565b828054600181600116156101000203166002900490600052602060002090601f016020900481019282601f1061030857805160ff1916838001178555610336565b82800160010185558215610336579182015b8281111561033557825182559160200191906001019061031a565b5b5090506103439190610347565b5090565b61036991905b8082111561036557600081600090555060010161034d565b5090565b905600a165627a7a72305820baf09bb053035cb792b22d9d0e33cb2b4d3473e7cb0a8478909afa50c456d5760029",
  "source": "pragma solidity ^0.4.20;\n\ncontract States {\n    int public _int = 0;\n    //8 ->256\n    uint public _uint = 0;\n    //8 ->256\n    //address\n    //bytes1..32\n    //enum\n    //array all types\n    //mapping all types\n    //struct\n    string public _string = \"string\";\n    bool public _bool = true;\n\n    function setString(string change) public {\n        _string = change;\n    }\n}",
  "sourcePath": "/home/ubuntu/dev/contract-state-util/contracts/States.sol",
  "compiler": {
    "name": "solc",
    "version": "0.4.23+commit.124ca40d.Emscripten.clang"
  },
  "schemaVersion": "2.0.0",
  "updatedAt": "2018-04-30T02:24:21.986Z"
}